{
  "contractName": "LandRegistration",
  "abi": [
    {
      "inputs": [],
      "stateMutability": "nonpayable",
      "type": "constructor"
    },
    {
      "anonymous": false,
      "inputs": [
        {
          "indexed": false,
          "internalType": "uint256",
          "name": "id",
          "type": "uint256"
        },
        {
          "indexed": false,
          "internalType": "uint256",
          "name": "lotNum",
          "type": "uint256"
        },
        {
          "indexed": false,
          "internalType": "uint256",
          "name": "surveyNum",
          "type": "uint256"
        },
        {
          "indexed": false,
          "internalType": "string",
          "name": "area",
          "type": "string"
        },
        {
          "indexed": false,
          "internalType": "string",
          "name": "loc",
          "type": "string"
        },
        {
          "indexed": false,
          "internalType": "string",
          "name": "locDesc",
          "type": "string"
        },
        {
          "indexed": false,
          "internalType": "string",
          "name": "fieldValidator",
          "type": "string"
        },
        {
          "indexed": false,
          "internalType": "string",
          "name": "owner",
          "type": "string"
        },
        {
          "indexed": false,
          "internalType": "string",
          "name": "ownerAddress",
          "type": "string"
        },
        {
          "indexed": false,
          "internalType": "uint256",
          "name": "cadNum",
          "type": "uint256"
        },
        {
          "indexed": false,
          "internalType": "uint256",
          "name": "lrcNum",
          "type": "uint256"
        }
      ],
      "name": "propertyRegistered",
      "type": "event"
    },
    {
      "inputs": [
        {
          "internalType": "uint256",
          "name": "",
          "type": "uint256"
        }
      ],
      "name": "availableProperties",
      "outputs": [
        {
          "internalType": "bool",
          "name": "",
          "type": "bool"
        }
      ],
      "stateMutability": "view",
      "type": "function",
      "constant": true
    },
    {
      "inputs": [
        {
          "internalType": "address",
          "name": "",
          "type": "address"
        }
      ],
      "name": "fieldValidators",
      "outputs": [
        {
          "internalType": "bool",
          "name": "",
          "type": "bool"
        }
      ],
      "stateMutability": "view",
      "type": "function",
      "constant": true
    },
    {
      "inputs": [],
      "name": "lra",
      "outputs": [
        {
          "internalType": "address",
          "name": "",
          "type": "address"
        }
      ],
      "stateMutability": "view",
      "type": "function",
      "constant": true
    },
    {
      "inputs": [
        {
          "internalType": "uint256",
          "name": "",
          "type": "uint256"
        }
      ],
      "name": "properties",
      "outputs": [
        {
          "internalType": "uint256",
          "name": "id",
          "type": "uint256"
        },
        {
          "internalType": "uint256",
          "name": "lotNum",
          "type": "uint256"
        },
        {
          "internalType": "uint256",
          "name": "surveyNum",
          "type": "uint256"
        },
        {
          "internalType": "string",
          "name": "area",
          "type": "string"
        },
        {
          "internalType": "string",
          "name": "loc",
          "type": "string"
        },
        {
          "internalType": "string",
          "name": "locDesc",
          "type": "string"
        },
        {
          "internalType": "string",
          "name": "fieldValidator",
          "type": "string"
        },
        {
          "components": [
            {
              "internalType": "string",
              "name": "owner",
              "type": "string"
            },
            {
              "internalType": "string",
              "name": "ownerAddress",
              "type": "string"
            },
            {
              "internalType": "uint256",
              "name": "cadNum",
              "type": "uint256"
            },
            {
              "internalType": "uint256",
              "name": "lrcNum",
              "type": "uint256"
            }
          ],
          "internalType": "struct LandRegistration.Deed",
          "name": "deed",
          "type": "tuple"
        }
      ],
      "stateMutability": "view",
      "type": "function",
      "constant": true
    },
    {
      "inputs": [],
      "name": "getLra",
      "outputs": [
        {
          "internalType": "address",
          "name": "lraAddress",
          "type": "address"
        }
      ],
      "stateMutability": "view",
      "type": "function",
      "constant": true
    },
    {
      "inputs": [
        {
          "internalType": "address",
          "name": "_address",
          "type": "address"
        }
      ],
      "name": "addFieldValidator",
      "outputs": [
        {
          "internalType": "bool",
          "name": "Success",
          "type": "bool"
        }
      ],
      "stateMutability": "nonpayable",
      "type": "function"
    },
    {
      "inputs": [
        {
          "internalType": "uint256",
          "name": "id",
          "type": "uint256"
        },
        {
          "internalType": "uint256",
          "name": "lotNum",
          "type": "uint256"
        },
        {
          "internalType": "uint256",
          "name": "surveyNum",
          "type": "uint256"
        },
        {
          "internalType": "string",
          "name": "area",
          "type": "string"
        },
        {
          "internalType": "string",
          "name": "loc",
          "type": "string"
        },
        {
          "internalType": "string",
          "name": "locDesc",
          "type": "string"
        },
        {
          "internalType": "string",
          "name": "fieldValidator",
          "type": "string"
        },
        {
          "internalType": "string",
          "name": "owner",
          "type": "string"
        },
        {
          "internalType": "string",
          "name": "ownerAddress",
          "type": "string"
        },
        {
          "internalType": "uint256",
          "name": "cadNum",
          "type": "uint256"
        },
        {
          "internalType": "uint256",
          "name": "lrcNum",
          "type": "uint256"
        }
      ],
      "name": "registerProperty",
      "outputs": [
        {
          "internalType": "bool",
          "name": "Success",
          "type": "bool"
        }
      ],
      "stateMutability": "nonpayable",
      "type": "function"
    },
    {
      "inputs": [
        {
          "internalType": "uint256",
          "name": "id",
          "type": "uint256"
        }
      ],
      "name": "getLandDetails",
      "outputs": [
        {
          "internalType": "uint256",
          "name": "",
          "type": "uint256"
        },
        {
          "internalType": "uint256",
          "name": "",
          "type": "uint256"
        },
        {
          "internalType": "string",
          "name": "",
          "type": "string"
        },
        {
          "internalType": "string",
          "name": "",
          "type": "string"
        },
        {
          "internalType": "string",
          "name": "",
          "type": "string"
        },
        {
          "components": [
            {
              "internalType": "string",
              "name": "owner",
              "type": "string"
            },
            {
              "internalType": "string",
              "name": "ownerAddress",
              "type": "string"
            },
            {
              "internalType": "uint256",
              "name": "cadNum",
              "type": "uint256"
            },
            {
              "internalType": "uint256",
              "name": "lrcNum",
              "type": "uint256"
            }
          ],
          "internalType": "struct LandRegistration.Deed",
          "name": "",
          "type": "tuple"
        }
      ],
      "stateMutability": "view",
      "type": "function",
      "constant": true
    },
    {
      "inputs": [
        {
          "internalType": "address",
          "name": "_address",
          "type": "address"
        }
      ],
      "name": "isFieldValidator",
      "outputs": [
        {
          "internalType": "bool",
          "name": "",
          "type": "bool"
        }
      ],
      "stateMutability": "view",
      "type": "function",
      "constant": true
    }
  ],
  "bytecode": "0x608060405234801561001057600080fd5b50336000806101000a81548173ffffffffffffffffffffffffffffffffffffffff021916908373ffffffffffffffffffffffffffffffffffffffff160217905550611684806100606000396000f3fe608060405234801561001057600080fd5b50600436106100935760003560e01c8063c29056e511610066578063c29056e514610146578063ccc79afa14610176578063f7b1080814610194578063fc434fd4146101cb578063fe0cb7dc146101fb57610093565b8063749c471714610098578063a1f53ba2146100c8578063a87a3e4a146100e6578063c270acef14610116575b600080fd5b6100b260048036038101906100ad9190610f80565b610230565b6040516100bf9190611137565b60405180910390f35b6100d0610441565b6040516100dd9190611193565b60405180910390f35b61010060048036038101906100fb91906111ae565b610465565b60405161010d9190611137565b60405180910390f35b610130600480360381019061012b9190611207565b610485565b60405161013d9190611137565b60405180910390f35b610160600480360381019061015b9190611207565b6104a5565b60405161016d9190611137565b60405180910390f35b61017e6104fb565b60405161018b9190611193565b60405180910390f35b6101ae60048036038101906101a991906111ae565b610524565b6040516101c298979695949392919061138e565b60405180910390f35b6101e560048036038101906101e09190611207565b6108ce565b6040516101f29190611137565b60405180910390f35b610215600480360381019061021091906111ae565b610930565b6040516102279695949392919061142f565b60405180910390f35b60008b600260008e8152602001908152602001600020600001819055508a600260008e81526020019081526020016000206001018190555089600260008e81526020019081526020016000206002018190555088600260008e815260200190815260200160002060030190805190602001906102ad929190610d25565b5087600260008e815260200190815260200160002060040190805190602001906102d8929190610d25565b5086600260008e81526020019081526020016000206005019080519060200190610303929190610d25565b5085600260008e8152602001908152602001600020600601908051906020019061032e929190610d25565b50604051806080016040528086815260200185815260200184815260200183815250600260008e81526020019081526020016000206007016000820151816000019080519060200190610382929190610d25565b50602082015181600101908051906020019061039f929190610d25565b5060408201518160020155606082015181600301559050506001600360008e815260200190815260200160002060006101000a81548160ff0219169083151502179055507f429cd88562b645b313caa82fdd747d0d4ede69175033bba5780ee0bb0955daa68c8c8c8c8c8c8c8c8c8c8c6040516104269b9a999897969594939291906114ac565b60405180910390a1600190509b9a5050505050505050505050565b60008054906101000a900473ffffffffffffffffffffffffffffffffffffffff1681565b60036020528060005260406000206000915054906101000a900460ff1681565b60016020528060005260406000206000915054906101000a900460ff1681565b6000600160008373ffffffffffffffffffffffffffffffffffffffff1673ffffffffffffffffffffffffffffffffffffffff16815260200190815260200160002060009054906101000a900460ff169050919050565b60008060009054906101000a900473ffffffffffffffffffffffffffffffffffffffff16905090565b6002602052806000526040600020600091509050806000015490806001015490806002015490806003018054610559906115b0565b80601f0160208091040260200160405190810160405280929190818152602001828054610585906115b0565b80156105d25780601f106105a7576101008083540402835291602001916105d2565b820191906000526020600020905b8154815290600101906020018083116105b557829003601f168201915b5050505050908060040180546105e7906115b0565b80601f0160208091040260200160405190810160405280929190818152602001828054610613906115b0565b80156106605780601f1061063557610100808354040283529160200191610660565b820191906000526020600020905b81548152906001019060200180831161064357829003601f168201915b505050505090806005018054610675906115b0565b80601f01602080910402602001604051908101604052809291908181526020018280546106a1906115b0565b80156106ee5780601f106106c3576101008083540402835291602001916106ee565b820191906000526020600020905b8154815290600101906020018083116106d157829003601f168201915b505050505090806006018054610703906115b0565b80601f016020809104026020016040519081016040528092919081815260200182805461072f906115b0565b801561077c5780601f106107515761010080835404028352916020019161077c565b820191906000526020600020905b81548152906001019060200180831161075f57829003601f168201915b505050505090806007016040518060800160405290816000820180546107a1906115b0565b80601f01602080910402602001604051908101604052809291908181526020018280546107cd906115b0565b801561081a5780601f106107ef5761010080835404028352916020019161081a565b820191906000526020600020905b8154815290600101906020018083116107fd57829003601f168201915b50505050508152602001600182018054610833906115b0565b80601f016020809104026020016040519081016040528092919081815260200182805461085f906115b0565b80156108ac5780601f10610881576101008083540402835291602001916108ac565b820191906000526020600020905b81548152906001019060200180831161088f57829003601f168201915b5050505050815260200160028201548152602001600382015481525050905088565b600060018060008473ffffffffffffffffffffffffffffffffffffffff1673ffffffffffffffffffffffffffffffffffffffff16815260200190815260200160002060006101000a81548160ff02191690831515021790555060019050919050565b6000806060806060610940610dab565b6003600088815260200190815260200160002060009054906101000a900460ff166109a0576040517f08c379a00000000000000000000000000000000000000000000000000000000081526004016109979061162e565b60405180910390fd5b60026000888152602001908152602001600020600101546002600089815260200190815260200160002060020154600260008a8152602001908152602001600020600301600260008b8152602001908152602001600020600401600260008c8152602001908152602001600020600501600260008d8152602001908152602001600020600701838054610a32906115b0565b80601f0160208091040260200160405190810160405280929190818152602001828054610a5e906115b0565b8015610aab5780601f10610a8057610100808354040283529160200191610aab565b820191906000526020600020905b815481529060010190602001808311610a8e57829003601f168201915b50505050509350828054610abe906115b0565b80601f0160208091040260200160405190810160405280929190818152602001828054610aea906115b0565b8015610b375780601f10610b0c57610100808354040283529160200191610b37565b820191906000526020600020905b815481529060010190602001808311610b1a57829003601f168201915b50505050509250818054610b4a906115b0565b80601f0160208091040260200160405190810160405280929190818152602001828054610b76906115b0565b8015610bc35780601f10610b9857610100808354040283529160200191610bc3565b820191906000526020600020905b815481529060010190602001808311610ba657829003601f168201915b5050505050915080604051806080016040529081600082018054610be6906115b0565b80601f0160208091040260200160405190810160405280929190818152602001828054610c12906115b0565b8015610c5f5780601f10610c3457610100808354040283529160200191610c5f565b820191906000526020600020905b815481529060010190602001808311610c4257829003601f168201915b50505050508152602001600182018054610c78906115b0565b80601f0160208091040260200160405190810160405280929190818152602001828054610ca4906115b0565b8015610cf15780601f10610cc657610100808354040283529160200191610cf1565b820191906000526020600020905b815481529060010190602001808311610cd457829003601f168201915b5050505050815260200160028201548152602001600382015481525050905095509550955095509550955091939550919395565b828054610d31906115b0565b90600052602060002090601f016020900481019282610d535760008555610d9a565b82601f10610d6c57805160ff1916838001178555610d9a565b82800160010185558215610d9a579182015b82811115610d99578251825591602001919060010190610d7e565b5b509050610da79190610dd3565b5090565b6040518060800160405280606081526020016060815260200160008152602001600081525090565b5b80821115610dec576000816000905550600101610dd4565b5090565b6000604051905090565b600080fd5b600080fd5b6000819050919050565b610e1781610e04565b8114610e2257600080fd5b50565b600081359050610e3481610e0e565b92915050565b600080fd5b600080fd5b6000601f19601f8301169050919050565b7f4e487b7100000000000000000000000000000000000000000000000000000000600052604160045260246000fd5b610e8d82610e44565b810181811067ffffffffffffffff82111715610eac57610eab610e55565b5b80604052505050565b6000610ebf610df0565b9050610ecb8282610e84565b919050565b600067ffffffffffffffff821115610eeb57610eea610e55565b5b610ef482610e44565b9050602081019050919050565b82818337600083830152505050565b6000610f23610f1e84610ed0565b610eb5565b905082815260208101848484011115610f3f57610f3e610e3f565b5b610f4a848285610f01565b509392505050565b600082601f830112610f6757610f66610e3a565b5b8135610f77848260208601610f10565b91505092915050565b60008060008060008060008060008060006101608c8e031215610fa657610fa5610dfa565b5b6000610fb48e828f01610e25565b9b50506020610fc58e828f01610e25565b9a50506040610fd68e828f01610e25565b99505060608c013567ffffffffffffffff811115610ff757610ff6610dff565b5b6110038e828f01610f52565b98505060808c013567ffffffffffffffff81111561102457611023610dff565b5b6110308e828f01610f52565b97505060a08c013567ffffffffffffffff81111561105157611050610dff565b5b61105d8e828f01610f52565b96505060c08c013567ffffffffffffffff81111561107e5761107d610dff565b5b61108a8e828f01610f52565b95505060e08c013567ffffffffffffffff8111156110ab576110aa610dff565b5b6110b78e828f01610f52565b9450506101008c013567ffffffffffffffff8111156110d9576110d8610dff565b5b6110e58e828f01610f52565b9350506101206110f78e828f01610e25565b9250506101406111098e828f01610e25565b9150509295989b509295989b9093969950565b60008115159050919050565b6111318161111c565b82525050565b600060208201905061114c6000830184611128565b92915050565b600073ffffffffffffffffffffffffffffffffffffffff82169050919050565b600061117d82611152565b9050919050565b61118d81611172565b82525050565b60006020820190506111a86000830184611184565b92915050565b6000602082840312156111c4576111c3610dfa565b5b60006111d284828501610e25565b91505092915050565b6111e481611172565b81146111ef57600080fd5b50565b600081359050611201816111db565b92915050565b60006020828403121561121d5761121c610dfa565b5b600061122b848285016111f2565b91505092915050565b61123d81610e04565b82525050565b600081519050919050565b600082825260208201905092915050565b60005b8381101561127d578082015181840152602081019050611262565b8381111561128c576000848401525b50505050565b600061129d82611243565b6112a7818561124e565b93506112b781856020860161125f565b6112c081610e44565b840191505092915050565b600082825260208201905092915050565b60006112e782611243565b6112f181856112cb565b935061130181856020860161125f565b61130a81610e44565b840191505092915050565b61131e81610e04565b82525050565b6000608083016000830151848203600086015261134182826112dc565b9150506020830151848203602086015261135b82826112dc565b91505060408301516113706040860182611315565b5060608301516113836060860182611315565b508091505092915050565b6000610100820190506113a4600083018b611234565b6113b1602083018a611234565b6113be6040830189611234565b81810360608301526113d08188611292565b905081810360808301526113e48187611292565b905081810360a08301526113f88186611292565b905081810360c083015261140c8185611292565b905081810360e08301526114208184611324565b90509998505050505050505050565b600060c0820190506114446000830189611234565b6114516020830188611234565b81810360408301526114638187611292565b905081810360608301526114778186611292565b9050818103608083015261148b8185611292565b905081810360a083015261149f8184611324565b9050979650505050505050565b6000610160820190506114c2600083018e611234565b6114cf602083018d611234565b6114dc604083018c611234565b81810360608301526114ee818b611292565b90508181036080830152611502818a611292565b905081810360a08301526115168189611292565b905081810360c083015261152a8188611292565b905081810360e083015261153e8187611292565b90508181036101008301526115538186611292565b9050611563610120830185611234565b611571610140830184611234565b9c9b505050505050505050505050565b7f4e487b7100000000000000000000000000000000000000000000000000000000600052602260045260246000fd5b600060028204905060018216806115c857607f821691505b602082108114156115dc576115db611581565b5b50919050565b7f50726f706572747920646f6573206e6f74206578697374210000000000000000600082015250565b600061161860188361124e565b9150611623826115e2565b602082019050919050565b600060208201905081810360008301526116478161160b565b905091905056fea26469706673582212204483b73191990d99fdb7b6c58e34cef45071d405c239d1a7106ee4ee592de90b64736f6c634300080a0033",
  "immutableReferences": {},
  "source": "// SPDX-License-Identifier: GPL-3.0\r\npragma solidity >=0.4.22 <0.9.0;\r\n\r\n/**\r\n * @title Land Registration\r\n */\r\ncontract LandRegistration {\r\n    \r\n    /**\r\n     * A property record that represents\r\n     * a single property. \r\n     * Contains important property attributes.\r\n     */\r\n    struct Property {\r\n        uint id;                // Property ID\r\n        uint lotNum;            // Property lot number\r\n        uint surveyNum;         // Property survey number\r\n        string area;            // Property total area\r\n        string loc;             // Property location\r\n        string locDesc;         // Property location description\r\n        string fieldValidator;  // Property field validator\r\n        Deed deed;              // Property deed\r\n    }\r\n\r\n    /**\r\n     * A Deed record that represents\r\n     * a single deed corresponding to\r\n     * a property.\r\n     * Contains important deed details\r\n     * atttributes.\r\n     */\r\n    struct Deed {\r\n        string owner;           // Property owner\r\n        string ownerAddress;    // Property owner address\r\n        uint cadNum;            // Property cadastral number\r\n        uint lrcNum;            // Property LRC record number\r\n    }\r\n\r\n    // Stores LRA address\r\n    address public lra;\r\n\r\n    /**\r\n     * Instatiate contract owner to\r\n     * LRA address on contract deployment\r\n     */\r\n    constructor() {\r\n        lra = msg.sender; \r\n    }\r\n\r\n    /**\r\n     * @dev Declares a state variable that\r\n     * stores boolean value for each possible address.\r\n     */\r\n    mapping(address => bool) public fieldValidators;\r\n\r\n    /**\r\n     * @dev Declares a state variable that\r\n     * stores a `Property` struct for each possible property id.\r\n     */\r\n    mapping(uint => Property) public properties;\r\n\r\n    /**\r\n     * @dev Declares a state variable that\r\n     * stores boolean value for each possible property id.\r\n     */\r\n    mapping(uint => bool) public availableProperties;\r\n\r\n    /**\r\n     * Access modifier that restricts operations \r\n     * to be performed only by the LRA.\r\n     */\r\n    modifier onlyLra() {\r\n        require(msg.sender == lra, \"Only LRA can perform this operation.\");\r\n        _;\r\n    }\r\n\r\n    \r\n    // Records event when a property is registered.\r\n    event propertyRegistered(\r\n        uint id, \r\n        uint lotNum,\r\n        uint surveyNum, \r\n        string area, \r\n        string loc, \r\n        string locDesc,\r\n        string fieldValidator,\r\n        string owner,\r\n        string ownerAddress,\r\n        uint cadNum,\r\n        uint lrcNum\r\n    );\r\n\r\n    /**\r\n     *\r\n     * @notice  Retrieves LRA address.\r\n     * @return  lraAddress  Returns the addres of LRA.\r\n     */\r\n    function getLra() public view returns (address lraAddress) {\r\n        return lra;\r\n    }\r\n\r\n    /**\r\n     *\r\n     * @notice  Adds address as Field Validator and add to `fieldValidators`\r\n     * @dev     Only LRA can perform this action.\r\n     *\r\n     * @param   _address    Address of the Field Validator\r\n     * @return  Success     Returns a boolean value if operation is successful\r\n     */\r\n    function addFieldValidator(address _address) public returns (bool Success) {\r\n        fieldValidators[_address] = true;\r\n        return true;\r\n    }\r\n\r\n    /**\r\n     * @notice  Registers property then adds property to `properties`\r\n                and `availableProperties` and emit Event `propertyRegistered`\r\n     * @dev     Only LRA can perform this action.\r\n     * \r\n     * @param   id              Property id\r\n     * @param   lotNum          Property lot number\r\n     * @param   surveyNum       Property survey number\r\n     * @param   area            Property total area\r\n     * @param   loc             Property location\r\n     * @param   locDesc         Property location description\r\n     * @param   fieldValidator  Property field validator\r\n     * @param   owner           Property owner\r\n     * @param   ownerAddress    Property owner address\r\n     * @param   cadNum          Property cadastral number\r\n     * @param   lrcNum          Property LRC record number\r\n     * @return  Success         Returns a boolean value if operation is successful\r\n     */\r\n    function registerProperty(\r\n        uint id,\r\n        uint lotNum,\r\n        uint surveyNum,\r\n        string memory area,\r\n        string memory loc,\r\n        string memory locDesc,\r\n        string memory fieldValidator,\r\n        string memory owner,\r\n        string memory ownerAddress,\r\n        uint cadNum,\r\n        uint lrcNum\r\n    ) public returns (bool Success) {\r\n        properties[id].id = id;\r\n        properties[id].lotNum = lotNum;\r\n        properties[id].surveyNum = surveyNum;\r\n        properties[id].area = area;\r\n        properties[id].loc = loc;\r\n        properties[id].locDesc = locDesc;\r\n        properties[id].fieldValidator = fieldValidator;\r\n        properties[id].deed = Deed ( \r\n            owner,\r\n            ownerAddress,\r\n            cadNum,\r\n            lrcNum\r\n        );\r\n\r\n        // Store id to `availableProperties`\r\n        availableProperties[id] = true;\r\n\r\n        // Emit `propertyRegistered` Event\r\n        emit propertyRegistered(\r\n            id, \r\n            lotNum, \r\n            surveyNum, \r\n            area,\r\n            loc, \r\n            locDesc, \r\n            fieldValidator,\r\n            owner,\r\n            ownerAddress,\r\n            cadNum,\r\n            lrcNum\r\n        );\r\n\r\n        return true;\r\n    }\r\n\r\n    /**\r\n     * @notice  Returns property details of given id.\r\n     * @dev     Check if property exist using require(avaliableProperties[id])\r\n     *\r\n     * @param   id       Property id\r\n     * @return  Property Returns property details\r\n     */\r\n    function getLandDetails(uint id) public view returns (\r\n        uint, \r\n        uint, \r\n        string memory,\r\n        string memory, \r\n        string memory,\r\n        Deed memory\r\n    ) {\r\n        require(availableProperties[id], \"Property does not exist!\");\r\n        return (\r\n            properties[id].lotNum,\r\n            properties[id].surveyNum,\r\n            properties[id].area,\r\n            properties[id].loc,\r\n            properties[id].locDesc,\r\n            properties[id].deed\r\n        );\r\n    }\r\n\r\n    function isFieldValidator(address _address) public view returns (bool) {\r\n        return fieldValidators[_address];\r\n    }\r\n}\r\n",
  "sourcePath": "C:\\Users\\mrobr\\Desktop\\blockchain-land-registration\\contracts\\LandRegistration.sol",
  "compiler": {
    "name": "solc",
    "version": "0.8.10+commit.fc410830.Emscripten.clang"
  },
  "schemaVersion": "3.4.3",
  "updatedAt": "2021-12-07T06:10:03.222Z",
  "networkType": "ethereum",
  "devdoc": {
    "kind": "dev",
    "methods": {
      "addFieldValidator(address)": {
        "details": "Only LRA can perform this action.",
        "params": {
          "_address": "Address of the Field Validator"
        },
        "returns": {
          "Success": "    Returns a boolean value if operation is successful"
        }
      },
      "getLandDetails(uint256)": {
        "details": "Check if property exist using require(avaliableProperties[id])",
        "params": {
          "id": "Property id"
        },
        "returns": {
          "_0": "Property Returns property details"
        }
      },
      "getLra()": {
        "returns": {
          "lraAddress": " Returns the addres of LRA."
        }
      },
      "registerProperty(uint256,uint256,uint256,string,string,string,string,string,string,uint256,uint256)": {
        "details": "Only LRA can perform this action. ",
        "params": {
          "area": "Property total area",
          "cadNum": "Property cadastral number",
          "fieldValidator": "Property field validator",
          "id": "Property id",
          "loc": "Property location",
          "locDesc": "Property location description",
          "lotNum": "Property lot number",
          "lrcNum": "Property LRC record number",
          "owner": "Property owner",
          "ownerAddress": "Property owner address",
          "surveyNum": "Property survey number"
        },
        "returns": {
          "Success": "        Returns a boolean value if operation is successful"
        }
      }
    },
    "stateVariables": {
      "availableProperties": {
        "details": "Declares a state variable that stores boolean value for each possible property id."
      },
      "fieldValidators": {
        "details": "Declares a state variable that stores boolean value for each possible address."
      },
      "properties": {
        "details": "Declares a state variable that stores a `Property` struct for each possible property id."
      }
    },
    "title": "Land Registration",
    "version": 1
  },
  "userdoc": {
    "kind": "user",
    "methods": {
      "addFieldValidator(address)": {
        "notice": "Adds address as Field Validator and add to `fieldValidators`"
      },
      "constructor": {
        "notice": "Instatiate contract owner to LRA address on contract deployment"
      },
      "getLandDetails(uint256)": {
        "notice": "Returns property details of given id."
      },
      "getLra()": {
        "notice": "Retrieves LRA address."
      },
      "registerProperty(uint256,uint256,uint256,string,string,string,string,string,string,uint256,uint256)": {
        "notice": "Registers property then adds property to `properties` and `availableProperties` and emit Event `propertyRegistered`"
      }
    },
    "version": 1
  }
}