{
  "contractName": "LandRegistration",
  "abi": [
    {
      "inputs": [],
      "stateMutability": "nonpayable",
      "type": "constructor"
    },
    {
      "anonymous": false,
      "inputs": [
        {
          "indexed": false,
          "internalType": "uint256",
          "name": "id",
          "type": "uint256"
        },
        {
          "indexed": false,
          "internalType": "uint256",
          "name": "lotNum",
          "type": "uint256"
        },
        {
          "indexed": false,
          "internalType": "uint256",
          "name": "surveyNum",
          "type": "uint256"
        },
        {
          "indexed": false,
          "internalType": "string",
          "name": "area",
          "type": "string"
        },
        {
          "indexed": false,
          "internalType": "string",
          "name": "loc",
          "type": "string"
        },
        {
          "indexed": false,
          "internalType": "string",
          "name": "locDesc",
          "type": "string"
        },
        {
          "indexed": false,
          "internalType": "string",
          "name": "fieldValidator",
          "type": "string"
        },
        {
          "indexed": false,
          "internalType": "string",
          "name": "owner",
          "type": "string"
        },
        {
          "indexed": false,
          "internalType": "string",
          "name": "ownerAddress",
          "type": "string"
        },
        {
          "indexed": false,
          "internalType": "uint256",
          "name": "cadNum",
          "type": "uint256"
        },
        {
          "indexed": false,
          "internalType": "uint256",
          "name": "lrcNum",
          "type": "uint256"
        }
      ],
      "name": "propertyRegistered",
      "type": "event"
    },
    {
      "inputs": [
        {
          "internalType": "uint256",
          "name": "",
          "type": "uint256"
        }
      ],
      "name": "availableProperties",
      "outputs": [
        {
          "internalType": "bool",
          "name": "",
          "type": "bool"
        }
      ],
      "stateMutability": "view",
      "type": "function",
      "constant": true
    },
    {
      "inputs": [
        {
          "internalType": "address",
          "name": "",
          "type": "address"
        }
      ],
      "name": "fieldValidators",
      "outputs": [
        {
          "internalType": "bool",
          "name": "",
          "type": "bool"
        }
      ],
      "stateMutability": "view",
      "type": "function",
      "constant": true
    },
    {
      "inputs": [],
      "name": "lra",
      "outputs": [
        {
          "internalType": "address",
          "name": "",
          "type": "address"
        }
      ],
      "stateMutability": "view",
      "type": "function",
      "constant": true
    },
    {
      "inputs": [
        {
          "internalType": "uint256",
          "name": "",
          "type": "uint256"
        }
      ],
      "name": "properties",
      "outputs": [
        {
          "internalType": "uint256",
          "name": "id",
          "type": "uint256"
        },
        {
          "internalType": "uint256",
          "name": "lotNum",
          "type": "uint256"
        },
        {
          "internalType": "uint256",
          "name": "surveyNum",
          "type": "uint256"
        },
        {
          "internalType": "string",
          "name": "area",
          "type": "string"
        },
        {
          "internalType": "string",
          "name": "loc",
          "type": "string"
        },
        {
          "internalType": "string",
          "name": "locDesc",
          "type": "string"
        },
        {
          "internalType": "string",
          "name": "fieldValidator",
          "type": "string"
        },
        {
          "components": [
            {
              "internalType": "string",
              "name": "owner",
              "type": "string"
            },
            {
              "internalType": "string",
              "name": "ownerAddress",
              "type": "string"
            },
            {
              "internalType": "uint256",
              "name": "cadNum",
              "type": "uint256"
            },
            {
              "internalType": "uint256",
              "name": "lrcNum",
              "type": "uint256"
            }
          ],
          "internalType": "struct LandRegistration.Deed",
          "name": "deed",
          "type": "tuple"
        }
      ],
      "stateMutability": "view",
      "type": "function",
      "constant": true
    },
    {
      "inputs": [],
      "name": "getLra",
      "outputs": [
        {
          "internalType": "address",
          "name": "lraAddress",
          "type": "address"
        }
      ],
      "stateMutability": "view",
      "type": "function",
      "constant": true
    },
    {
      "inputs": [
        {
          "internalType": "address",
          "name": "_address",
          "type": "address"
        }
      ],
      "name": "addFieldValidator",
      "outputs": [
        {
          "internalType": "bool",
          "name": "Success",
          "type": "bool"
        }
      ],
      "stateMutability": "nonpayable",
      "type": "function"
    },
    {
      "inputs": [
        {
          "internalType": "uint256",
          "name": "id",
          "type": "uint256"
        },
        {
          "internalType": "uint256",
          "name": "lotNum",
          "type": "uint256"
        },
        {
          "internalType": "uint256",
          "name": "surveyNum",
          "type": "uint256"
        },
        {
          "internalType": "string",
          "name": "area",
          "type": "string"
        },
        {
          "internalType": "string",
          "name": "loc",
          "type": "string"
        },
        {
          "internalType": "string",
          "name": "locDesc",
          "type": "string"
        },
        {
          "internalType": "string",
          "name": "fieldValidator",
          "type": "string"
        },
        {
          "internalType": "string",
          "name": "owner",
          "type": "string"
        },
        {
          "internalType": "string",
          "name": "ownerAddress",
          "type": "string"
        },
        {
          "internalType": "uint256",
          "name": "cadNum",
          "type": "uint256"
        },
        {
          "internalType": "uint256",
          "name": "lrcNum",
          "type": "uint256"
        }
      ],
      "name": "registerProperty",
      "outputs": [
        {
          "internalType": "bool",
          "name": "Success",
          "type": "bool"
        }
      ],
      "stateMutability": "nonpayable",
      "type": "function"
    },
    {
      "inputs": [
        {
          "internalType": "uint256",
          "name": "id",
          "type": "uint256"
        }
      ],
      "name": "getLandDetails",
      "outputs": [
        {
          "internalType": "uint256",
          "name": "",
          "type": "uint256"
        },
        {
          "internalType": "uint256",
          "name": "",
          "type": "uint256"
        },
        {
          "internalType": "string",
          "name": "",
          "type": "string"
        },
        {
          "internalType": "string",
          "name": "",
          "type": "string"
        },
        {
          "internalType": "string",
          "name": "",
          "type": "string"
        },
        {
          "components": [
            {
              "internalType": "string",
              "name": "owner",
              "type": "string"
            },
            {
              "internalType": "string",
              "name": "ownerAddress",
              "type": "string"
            },
            {
              "internalType": "uint256",
              "name": "cadNum",
              "type": "uint256"
            },
            {
              "internalType": "uint256",
              "name": "lrcNum",
              "type": "uint256"
            }
          ],
          "internalType": "struct LandRegistration.Deed",
          "name": "",
          "type": "tuple"
        }
      ],
      "stateMutability": "view",
      "type": "function",
      "constant": true
    }
  ],
  "bytecode": "0x608060405234801561001057600080fd5b50336000806101000a81548173ffffffffffffffffffffffffffffffffffffffff021916908373ffffffffffffffffffffffffffffffffffffffff160217905550611714806100606000396000f3fe608060405234801561001057600080fd5b50600436106100885760003560e01c8063ccc79afa1161005b578063ccc79afa1461013b578063f7b1080814610159578063fc434fd414610190578063fe0cb7dc146101c057610088565b8063749c47171461008d578063a1f53ba2146100bd578063a87a3e4a146100db578063c270acef1461010b575b600080fd5b6100a760048036038101906100a29190610f7e565b6101f5565b6040516100b49190611135565b60405180910390f35b6100c5610406565b6040516100d29190611191565b60405180910390f35b6100f560048036038101906100f091906111ac565b61042a565b6040516101029190611135565b60405180910390f35b61012560048036038101906101209190611205565b61044a565b6040516101329190611135565b60405180910390f35b61014361046a565b6040516101509190611191565b60405180910390f35b610173600480360381019061016e91906111ac565b610493565b60405161018798979695949392919061138c565b60405180910390f35b6101aa60048036038101906101a59190611205565b61083d565b6040516101b79190611135565b60405180910390f35b6101da60048036038101906101d591906111ac565b61092e565b6040516101ec9695949392919061142d565b60405180910390f35b60008b600260008e8152602001908152602001600020600001819055508a600260008e81526020019081526020016000206001018190555089600260008e81526020019081526020016000206002018190555088600260008e81526020019081526020016000206003019080519060200190610272929190610d23565b5087600260008e8152602001908152602001600020600401908051906020019061029d929190610d23565b5086600260008e815260200190815260200160002060050190805190602001906102c8929190610d23565b5085600260008e815260200190815260200160002060060190805190602001906102f3929190610d23565b50604051806080016040528086815260200185815260200184815260200183815250600260008e81526020019081526020016000206007016000820151816000019080519060200190610347929190610d23565b506020820151816001019080519060200190610364929190610d23565b5060408201518160020155606082015181600301559050506001600360008e815260200190815260200160002060006101000a81548160ff0219169083151502179055507f429cd88562b645b313caa82fdd747d0d4ede69175033bba5780ee0bb0955daa68c8c8c8c8c8c8c8c8c8c8c6040516103eb9b9a999897969594939291906114aa565b60405180910390a1600190509b9a5050505050505050505050565b60008054906101000a900473ffffffffffffffffffffffffffffffffffffffff1681565b60036020528060005260406000206000915054906101000a900460ff1681565b60016020528060005260406000206000915054906101000a900460ff1681565b60008060009054906101000a900473ffffffffffffffffffffffffffffffffffffffff16905090565b60026020528060005260406000206000915090508060000154908060010154908060020154908060030180546104c8906115ae565b80601f01602080910402602001604051908101604052809291908181526020018280546104f4906115ae565b80156105415780601f1061051657610100808354040283529160200191610541565b820191906000526020600020905b81548152906001019060200180831161052457829003601f168201915b505050505090806004018054610556906115ae565b80601f0160208091040260200160405190810160405280929190818152602001828054610582906115ae565b80156105cf5780601f106105a4576101008083540402835291602001916105cf565b820191906000526020600020905b8154815290600101906020018083116105b257829003601f168201915b5050505050908060050180546105e4906115ae565b80601f0160208091040260200160405190810160405280929190818152602001828054610610906115ae565b801561065d5780601f106106325761010080835404028352916020019161065d565b820191906000526020600020905b81548152906001019060200180831161064057829003601f168201915b505050505090806006018054610672906115ae565b80601f016020809104026020016040519081016040528092919081815260200182805461069e906115ae565b80156106eb5780601f106106c0576101008083540402835291602001916106eb565b820191906000526020600020905b8154815290600101906020018083116106ce57829003601f168201915b50505050509080600701604051806080016040529081600082018054610710906115ae565b80601f016020809104026020016040519081016040528092919081815260200182805461073c906115ae565b80156107895780601f1061075e57610100808354040283529160200191610789565b820191906000526020600020905b81548152906001019060200180831161076c57829003601f168201915b505050505081526020016001820180546107a2906115ae565b80601f01602080910402602001604051908101604052809291908181526020018280546107ce906115ae565b801561081b5780601f106107f05761010080835404028352916020019161081b565b820191906000526020600020905b8154815290600101906020018083116107fe57829003601f168201915b5050505050815260200160028201548152602001600382015481525050905088565b60008060009054906101000a900473ffffffffffffffffffffffffffffffffffffffff1673ffffffffffffffffffffffffffffffffffffffff163373ffffffffffffffffffffffffffffffffffffffff16146108ce576040517f08c379a00000000000000000000000000000000000000000000000000000000081526004016108c590611652565b60405180910390fd5b60018060008473ffffffffffffffffffffffffffffffffffffffff1673ffffffffffffffffffffffffffffffffffffffff16815260200190815260200160002060006101000a81548160ff02191690831515021790555060019050919050565b600080606080606061093e610da9565b6003600088815260200190815260200160002060009054906101000a900460ff1661099e576040517f08c379a0000000000000000000000000000000000000000000000000000000008152600401610995906116be565b60405180910390fd5b60026000888152602001908152602001600020600101546002600089815260200190815260200160002060020154600260008a8152602001908152602001600020600301600260008b8152602001908152602001600020600401600260008c8152602001908152602001600020600501600260008d8152602001908152602001600020600701838054610a30906115ae565b80601f0160208091040260200160405190810160405280929190818152602001828054610a5c906115ae565b8015610aa95780601f10610a7e57610100808354040283529160200191610aa9565b820191906000526020600020905b815481529060010190602001808311610a8c57829003601f168201915b50505050509350828054610abc906115ae565b80601f0160208091040260200160405190810160405280929190818152602001828054610ae8906115ae565b8015610b355780601f10610b0a57610100808354040283529160200191610b35565b820191906000526020600020905b815481529060010190602001808311610b1857829003601f168201915b50505050509250818054610b48906115ae565b80601f0160208091040260200160405190810160405280929190818152602001828054610b74906115ae565b8015610bc15780601f10610b9657610100808354040283529160200191610bc1565b820191906000526020600020905b815481529060010190602001808311610ba457829003601f168201915b5050505050915080604051806080016040529081600082018054610be4906115ae565b80601f0160208091040260200160405190810160405280929190818152602001828054610c10906115ae565b8015610c5d5780601f10610c3257610100808354040283529160200191610c5d565b820191906000526020600020905b815481529060010190602001808311610c4057829003601f168201915b50505050508152602001600182018054610c76906115ae565b80601f0160208091040260200160405190810160405280929190818152602001828054610ca2906115ae565b8015610cef5780601f10610cc457610100808354040283529160200191610cef565b820191906000526020600020905b815481529060010190602001808311610cd257829003601f168201915b5050505050815260200160028201548152602001600382015481525050905095509550955095509550955091939550919395565b828054610d2f906115ae565b90600052602060002090601f016020900481019282610d515760008555610d98565b82601f10610d6a57805160ff1916838001178555610d98565b82800160010185558215610d98579182015b82811115610d97578251825591602001919060010190610d7c565b5b509050610da59190610dd1565b5090565b6040518060800160405280606081526020016060815260200160008152602001600081525090565b5b80821115610dea576000816000905550600101610dd2565b5090565b6000604051905090565b600080fd5b600080fd5b6000819050919050565b610e1581610e02565b8114610e2057600080fd5b50565b600081359050610e3281610e0c565b92915050565b600080fd5b600080fd5b6000601f19601f8301169050919050565b7f4e487b7100000000000000000000000000000000000000000000000000000000600052604160045260246000fd5b610e8b82610e42565b810181811067ffffffffffffffff82111715610eaa57610ea9610e53565b5b80604052505050565b6000610ebd610dee565b9050610ec98282610e82565b919050565b600067ffffffffffffffff821115610ee957610ee8610e53565b5b610ef282610e42565b9050602081019050919050565b82818337600083830152505050565b6000610f21610f1c84610ece565b610eb3565b905082815260208101848484011115610f3d57610f3c610e3d565b5b610f48848285610eff565b509392505050565b600082601f830112610f6557610f64610e38565b5b8135610f75848260208601610f0e565b91505092915050565b60008060008060008060008060008060006101608c8e031215610fa457610fa3610df8565b5b6000610fb28e828f01610e23565b9b50506020610fc38e828f01610e23565b9a50506040610fd48e828f01610e23565b99505060608c013567ffffffffffffffff811115610ff557610ff4610dfd565b5b6110018e828f01610f50565b98505060808c013567ffffffffffffffff81111561102257611021610dfd565b5b61102e8e828f01610f50565b97505060a08c013567ffffffffffffffff81111561104f5761104e610dfd565b5b61105b8e828f01610f50565b96505060c08c013567ffffffffffffffff81111561107c5761107b610dfd565b5b6110888e828f01610f50565b95505060e08c013567ffffffffffffffff8111156110a9576110a8610dfd565b5b6110b58e828f01610f50565b9450506101008c013567ffffffffffffffff8111156110d7576110d6610dfd565b5b6110e38e828f01610f50565b9350506101206110f58e828f01610e23565b9250506101406111078e828f01610e23565b9150509295989b509295989b9093969950565b60008115159050919050565b61112f8161111a565b82525050565b600060208201905061114a6000830184611126565b92915050565b600073ffffffffffffffffffffffffffffffffffffffff82169050919050565b600061117b82611150565b9050919050565b61118b81611170565b82525050565b60006020820190506111a66000830184611182565b92915050565b6000602082840312156111c2576111c1610df8565b5b60006111d084828501610e23565b91505092915050565b6111e281611170565b81146111ed57600080fd5b50565b6000813590506111ff816111d9565b92915050565b60006020828403121561121b5761121a610df8565b5b6000611229848285016111f0565b91505092915050565b61123b81610e02565b82525050565b600081519050919050565b600082825260208201905092915050565b60005b8381101561127b578082015181840152602081019050611260565b8381111561128a576000848401525b50505050565b600061129b82611241565b6112a5818561124c565b93506112b581856020860161125d565b6112be81610e42565b840191505092915050565b600082825260208201905092915050565b60006112e582611241565b6112ef81856112c9565b93506112ff81856020860161125d565b61130881610e42565b840191505092915050565b61131c81610e02565b82525050565b6000608083016000830151848203600086015261133f82826112da565b9150506020830151848203602086015261135982826112da565b915050604083015161136e6040860182611313565b5060608301516113816060860182611313565b508091505092915050565b6000610100820190506113a2600083018b611232565b6113af602083018a611232565b6113bc6040830189611232565b81810360608301526113ce8188611290565b905081810360808301526113e28187611290565b905081810360a08301526113f68186611290565b905081810360c083015261140a8185611290565b905081810360e083015261141e8184611322565b90509998505050505050505050565b600060c0820190506114426000830189611232565b61144f6020830188611232565b81810360408301526114618187611290565b905081810360608301526114758186611290565b905081810360808301526114898185611290565b905081810360a083015261149d8184611322565b9050979650505050505050565b6000610160820190506114c0600083018e611232565b6114cd602083018d611232565b6114da604083018c611232565b81810360608301526114ec818b611290565b90508181036080830152611500818a611290565b905081810360a08301526115148189611290565b905081810360c08301526115288188611290565b905081810360e083015261153c8187611290565b90508181036101008301526115518186611290565b9050611561610120830185611232565b61156f610140830184611232565b9c9b505050505050505050505050565b7f4e487b7100000000000000000000000000000000000000000000000000000000600052602260045260246000fd5b600060028204905060018216806115c657607f821691505b602082108114156115da576115d961157f565b5b50919050565b7f4f6e6c79204c52412063616e20706572666f726d2074686973206f706572617460008201527f696f6e2e00000000000000000000000000000000000000000000000000000000602082015250565b600061163c60248361124c565b9150611647826115e0565b604082019050919050565b6000602082019050818103600083015261166b8161162f565b9050919050565b7f50726f706572747920646f6573206e6f74206578697374210000000000000000600082015250565b60006116a860188361124c565b91506116b382611672565b602082019050919050565b600060208201905081810360008301526116d78161169b565b905091905056fea26469706673582212201d7e989f7f6f2bdbd35b581bba757bd7e574d9301079c139cda40bc1f91730a064736f6c634300080a0033",
  "immutableReferences": {},
  "source": "// SPDX-License-Identifier: GPL-3.0\r\npragma solidity >=0.4.22 <0.9.0;\r\n\r\ncontract LandRegistration {\r\n    \r\n    struct Property {\r\n        uint id;\r\n        uint lotNum;\r\n        uint surveyNum;\r\n        string area;\r\n        string loc;\r\n        string locDesc;\r\n        string fieldValidator;\r\n        Deed deed;\r\n    }\r\n\r\n    struct Deed {\r\n        string owner;\r\n        string ownerAddress;\r\n        uint cadNum;\r\n        uint lrcNum;\r\n    }\r\n\r\n    address public lra;\r\n\r\n    constructor() {\r\n        lra = msg.sender; \r\n    }\r\n\r\n    mapping(address => bool) public fieldValidators;\r\n    mapping(uint => Property) public properties;\r\n    mapping(uint => bool) public availableProperties;\r\n\r\n    modifier onlyLra() {\r\n        require(msg.sender == lra, \"Only LRA can perform this operation.\");\r\n        _;\r\n    }\r\n\r\n    event propertyRegistered(\r\n        uint id, \r\n        uint lotNum,\r\n        uint surveyNum, \r\n        string area, \r\n        string loc, \r\n        string locDesc,\r\n        string fieldValidator,\r\n        string owner,\r\n        string ownerAddress,\r\n        uint cadNum,\r\n        uint lrcNum\r\n    );\r\n\r\n    function getLra() public view returns (address lraAddress) {\r\n        return lra;\r\n    }\r\n\r\n    function addFieldValidator(address _address) public onlyLra returns (bool Success) {\r\n        fieldValidators[_address] = true;\r\n        return true;\r\n    }\r\n\r\n    function registerProperty(\r\n        uint id,\r\n        uint lotNum,\r\n        uint surveyNum,\r\n        string memory area,\r\n        string memory loc,\r\n        string memory locDesc,\r\n        string memory fieldValidator,\r\n        string memory owner,\r\n        string memory ownerAddress,\r\n        uint cadNum,\r\n        uint lrcNum\r\n    ) public returns (bool Success) {\r\n        properties[id].id = id;\r\n        properties[id].lotNum = lotNum;\r\n        properties[id].surveyNum = surveyNum;\r\n        properties[id].area = area;\r\n        properties[id].loc = loc;\r\n        properties[id].locDesc = locDesc;\r\n        properties[id].fieldValidator = fieldValidator;\r\n        properties[id].deed = Deed ( \r\n            owner,\r\n            ownerAddress,\r\n            cadNum,\r\n            lrcNum\r\n        );\r\n\r\n        availableProperties[id] = true;\r\n\r\n        emit propertyRegistered(\r\n            id, \r\n            lotNum, \r\n            surveyNum, \r\n            area,\r\n            loc, \r\n            locDesc, \r\n            fieldValidator,\r\n            owner,\r\n            ownerAddress,\r\n            cadNum,\r\n            lrcNum\r\n        );\r\n\r\n        return true;\r\n    }\r\n\r\n    function getLandDetails(uint id) public view returns (\r\n        uint, \r\n        uint, \r\n        string memory,\r\n        string memory, \r\n        string memory,\r\n        Deed memory\r\n    ) {\r\n        require(availableProperties[id], \"Property does not exist!\");\r\n        return (\r\n            properties[id].lotNum,\r\n            properties[id].surveyNum,\r\n            properties[id].area,\r\n            properties[id].loc,\r\n            properties[id].locDesc,\r\n            properties[id].deed\r\n        );\r\n    }\r\n}\r\n",
  "sourcePath": "C:\\Users\\mrobr\\Desktop\\blockchain-land-registration\\contracts\\LandRegistration.sol",
  "compiler": {
    "name": "solc",
    "version": "0.8.10+commit.fc410830.Emscripten.clang"
  },
  "schemaVersion": "3.4.3",
  "updatedAt": "2021-12-01T10:14:38.879Z",
  "networkType": "ethereum",
  "devdoc": {
    "kind": "dev",
    "methods": {},
    "version": 1
  },
  "userdoc": {
    "kind": "user",
    "methods": {},
    "version": 1
  }
}